H201512041343460000001461620151204T194126269899                                                                                                                                                         
DMCTOK0000000000456654                            MCCPINTEREST        THANKS FROM PINTEREST          0.54OOthers                        201512043ZNelbi1EEJ                                             
T00000000000100000000000000000000000100000014616                                                                                                                                                        
